{
  "_format": "hh-sol-artifact-1",
  "contractName": "Upload",
  "sourceName": "contracts/Upload.sol",
  "abi": [
    {
      "inputs": [
        {
          "internalType": "address",
          "name": "_user",
          "type": "address"
        },
        {
          "internalType": "string",
          "name": "url",
          "type": "string"
        }
      ],
      "name": "add",
      "outputs": [],
      "stateMutability": "nonpayable",
      "type": "function"
    },
    {
      "inputs": [
        {
          "internalType": "address",
          "name": "user",
          "type": "address"
        }
      ],
      "name": "allow",
      "outputs": [],
      "stateMutability": "nonpayable",
      "type": "function"
    },
    {
      "inputs": [
        {
          "internalType": "string",
          "name": "_name",
          "type": "string"
        },
        {
          "internalType": "string",
          "name": "_description",
          "type": "string"
        },
        {
          "internalType": "int256",
          "name": "_vacancy",
          "type": "int256"
        },
        {
          "internalType": "string",
          "name": "_eligibility",
          "type": "string"
        },
        {
          "internalType": "uint256",
          "name": "_registrationDeadline",
          "type": "uint256"
        },
        {
          "internalType": "uint256",
          "name": "_totalMarks",
          "type": "uint256"
        },
        {
          "internalType": "uint256",
          "name": "_examDuration",
          "type": "uint256"
        },
        {
          "internalType": "string",
          "name": "_examDate",
          "type": "string"
        },
        {
          "internalType": "string",
          "name": "_salary",
          "type": "string"
        }
      ],
      "name": "createPaper",
      "outputs": [],
      "stateMutability": "nonpayable",
      "type": "function"
    },
    {
      "inputs": [
        {
          "internalType": "address",
          "name": "user",
          "type": "address"
        }
      ],
      "name": "disallow",
      "outputs": [],
      "stateMutability": "nonpayable",
      "type": "function"
    },
    {
      "inputs": [
        {
          "internalType": "address",
          "name": "_user",
          "type": "address"
        }
      ],
      "name": "display",
      "outputs": [
        {
          "internalType": "string[]",
          "name": "",
          "type": "string[]"
        }
      ],
      "stateMutability": "view",
      "type": "function"
    },
    {
      "inputs": [
        {
          "internalType": "uint256",
          "name": "_paperId",
          "type": "uint256"
        }
      ],
      "name": "getPaperDetails",
      "outputs": [
        {
          "internalType": "string",
          "name": "",
          "type": "string"
        },
        {
          "internalType": "string",
          "name": "",
          "type": "string"
        },
        {
          "internalType": "int256",
          "name": "",
          "type": "int256"
        },
        {
          "internalType": "string",
          "name": "",
          "type": "string"
        },
        {
          "internalType": "uint256",
          "name": "",
          "type": "uint256"
        },
        {
          "internalType": "uint256",
          "name": "",
          "type": "uint256"
        },
        {
          "internalType": "uint256",
          "name": "",
          "type": "uint256"
        },
        {
          "internalType": "string",
          "name": "",
          "type": "string"
        },
        {
          "internalType": "string",
          "name": "",
          "type": "string"
        },
        {
          "internalType": "address",
          "name": "",
          "type": "address"
        }
      ],
      "stateMutability": "view",
      "type": "function"
    },
    {
      "inputs": [],
      "name": "paperCount",
      "outputs": [
        {
          "internalType": "uint256",
          "name": "",
          "type": "uint256"
        }
      ],
      "stateMutability": "view",
      "type": "function"
    },
    {
      "inputs": [
        {
          "internalType": "uint256",
          "name": "",
          "type": "uint256"
        }
      ],
      "name": "papers",
      "outputs": [
        {
          "internalType": "string",
          "name": "name",
          "type": "string"
        },
        {
          "internalType": "string",
          "name": "description",
          "type": "string"
        },
        {
          "internalType": "int256",
          "name": "vacancy",
          "type": "int256"
        },
        {
          "internalType": "string",
          "name": "eligibility",
          "type": "string"
        },
        {
          "internalType": "uint256",
          "name": "registrationDeadline",
          "type": "uint256"
        },
        {
          "internalType": "uint256",
          "name": "totalMarks",
          "type": "uint256"
        },
        {
          "internalType": "uint256",
          "name": "examDuration",
          "type": "uint256"
        },
        {
          "internalType": "string",
          "name": "examDate",
          "type": "string"
        },
        {
          "internalType": "string",
          "name": "salary",
          "type": "string"
        },
        {
          "internalType": "address",
          "name": "creator",
          "type": "address"
        }
      ],
      "stateMutability": "view",
      "type": "function"
    },
    {
      "inputs": [],
      "name": "shareAccess",
      "outputs": [
        {
          "components": [
            {
              "internalType": "address",
              "name": "user",
              "type": "address"
            },
            {
              "internalType": "bool",
              "name": "access",
              "type": "bool"
            }
          ],
          "internalType": "struct Upload.Access[]",
          "name": "",
          "type": "tuple[]"
        }
      ],
      "stateMutability": "view",
      "type": "function"
    }
  ],
  "bytecode": "0x6080604052600060055534801561001557600080fd5b5061208f806100256000396000f3fe608060405234801561001057600080fd5b50600436106100935760003560e01c8063a9ed9cb811610066578063a9ed9cb814610144578063b9b402b214610160578063bc8bef811461017c578063eb39113f1461019a578063ff9913e8146101ca57610093565b806336d6da55146100985780635e775a27146100b45780638bf7526e146100ed578063a56c2cb914610126575b600080fd5b6100b260048036038101906100ad9190611613565b6101e6565b005b6100ce60048036038101906100c991906116a5565b61025b565b6040516100e49a99989796959493929190611788565b60405180910390f35b610107600480360381019061010291906116a5565b610577565b60405161011d9a99989796959493929190611788565b60405180910390f35b61012e610958565b60405161013b9190611847565b60405180910390f35b61015e60048036038101906101599190611862565b61095e565b005b61017a600480360381019061017591906118bb565b610b80565b005b610184610cf6565b6040516101919190611b19565b60405180910390f35b6101b460048036038101906101af9190611862565b610dff565b6040516101c19190611c47565b60405180910390f35b6101e460048036038101906101df9190611862565b611015565b005b6000808373ffffffffffffffffffffffffffffffffffffffff1673ffffffffffffffffffffffffffffffffffffffff168152602001908152602001600020819080600181540180825580915050600190039060005260206000200160009091909190915090816102569190611e75565b505050565b600460205280600052604060002060009150905080600001805461027e90611c98565b80601f01602080910402602001604051908101604052809291908181526020018280546102aa90611c98565b80156102f75780601f106102cc576101008083540402835291602001916102f7565b820191906000526020600020905b8154815290600101906020018083116102da57829003601f168201915b50505050509080600101805461030c90611c98565b80601f016020809104026020016040519081016040528092919081815260200182805461033890611c98565b80156103855780601f1061035a57610100808354040283529160200191610385565b820191906000526020600020905b81548152906001019060200180831161036857829003601f168201915b5050505050908060020154908060030180546103a090611c98565b80601f01602080910402602001604051908101604052809291908181526020018280546103cc90611c98565b80156104195780601f106103ee57610100808354040283529160200191610419565b820191906000526020600020905b8154815290600101906020018083116103fc57829003601f168201915b50505050509080600401549080600501549080600601549080600701805461044090611c98565b80601f016020809104026020016040519081016040528092919081815260200182805461046c90611c98565b80156104b95780601f1061048e576101008083540402835291602001916104b9565b820191906000526020600020905b81548152906001019060200180831161049c57829003601f168201915b5050505050908060080180546104ce90611c98565b80601f01602080910402602001604051908101604052809291908181526020018280546104fa90611c98565b80156105475780601f1061051c57610100808354040283529160200191610547565b820191906000526020600020905b81548152906001019060200180831161052a57829003601f168201915b5050505050908060090160009054906101000a900473ffffffffffffffffffffffffffffffffffffffff1690508a565b606080600060606000806000606080600080600460008d8152602001908152602001600020604051806101400160405290816000820180546105b890611c98565b80601f01602080910402602001604051908101604052809291908181526020018280546105e490611c98565b80156106315780601f1061060657610100808354040283529160200191610631565b820191906000526020600020905b81548152906001019060200180831161061457829003601f168201915b5050505050815260200160018201805461064a90611c98565b80601f016020809104026020016040519081016040528092919081815260200182805461067690611c98565b80156106c35780601f10610698576101008083540402835291602001916106c3565b820191906000526020600020905b8154815290600101906020018083116106a657829003601f168201915b50505050508152602001600282015481526020016003820180546106e690611c98565b80601f016020809104026020016040519081016040528092919081815260200182805461071290611c98565b801561075f5780601f106107345761010080835404028352916020019161075f565b820191906000526020600020905b81548152906001019060200180831161074257829003601f168201915b5050505050815260200160048201548152602001600582015481526020016006820154815260200160078201805461079690611c98565b80601f01602080910402602001604051908101604052809291908181526020018280546107c290611c98565b801561080f5780601f106107e45761010080835404028352916020019161080f565b820191906000526020600020905b8154815290600101906020018083116107f257829003601f168201915b5050505050815260200160088201805461082890611c98565b80601f016020809104026020016040519081016040528092919081815260200182805461085490611c98565b80156108a15780601f10610876576101008083540402835291602001916108a1565b820191906000526020600020905b81548152906001019060200180831161088457829003601f168201915b505050505081526020016009820160009054906101000a900473ffffffffffffffffffffffffffffffffffffffff1673ffffffffffffffffffffffffffffffffffffffff1673ffffffffffffffffffffffffffffffffffffffff16815250509050806000015181602001518260400151836060015184608001518560a001518660c001518760e001518861010001518961012001519a509a509a509a509a509a509a509a509a509a50509193959799509193959799565b60055481565b6000600160003373ffffffffffffffffffffffffffffffffffffffff1673ffffffffffffffffffffffffffffffffffffffff16815260200190815260200160002060008373ffffffffffffffffffffffffffffffffffffffff1673ffffffffffffffffffffffffffffffffffffffff16815260200190815260200160002060006101000a81548160ff02191690831515021790555060005b600260003373ffffffffffffffffffffffffffffffffffffffff1673ffffffffffffffffffffffffffffffffffffffff16815260200190815260200160002080549050811015610b7c578173ffffffffffffffffffffffffffffffffffffffff16600260003373ffffffffffffffffffffffffffffffffffffffff1673ffffffffffffffffffffffffffffffffffffffff1681526020019081526020016000208281548110610aa857610aa7611f47565b5b9060005260206000200160000160009054906101000a900473ffffffffffffffffffffffffffffffffffffffff1673ffffffffffffffffffffffffffffffffffffffff1603610b69576000600260003373ffffffffffffffffffffffffffffffffffffffff1673ffffffffffffffffffffffffffffffffffffffff1681526020019081526020016000208281548110610b4457610b43611f47565b5b9060005260206000200160000160146101000a81548160ff0219169083151502179055505b8080610b7490611fa5565b9150506109f6565b5050565b60056000815480929190610b9390611fa5565b91905055506040518061014001604052808a81526020018981526020018881526020018781526020018681526020018581526020018481526020018381526020018281526020013373ffffffffffffffffffffffffffffffffffffffff168152506004600060055481526020019081526020016000206000820151816000019081610c1e9190611e75565b506020820151816001019081610c349190611e75565b50604082015181600201556060820151816003019081610c549190611e75565b506080820151816004015560a0820151816005015560c0820151816006015560e0820151816007019081610c889190611e75565b50610100820151816008019081610c9f9190611e75565b506101208201518160090160006101000a81548173ffffffffffffffffffffffffffffffffffffffff021916908373ffffffffffffffffffffffffffffffffffffffff160217905550905050505050505050505050565b6060600260003373ffffffffffffffffffffffffffffffffffffffff1673ffffffffffffffffffffffffffffffffffffffff168152602001908152602001600020805480602002602001604051908101604052809291908181526020016000905b82821015610df6578382906000526020600020016040518060400160405290816000820160009054906101000a900473ffffffffffffffffffffffffffffffffffffffff1673ffffffffffffffffffffffffffffffffffffffff1673ffffffffffffffffffffffffffffffffffffffff1681526020016000820160149054906101000a900460ff16151515158152505081526020019060010190610d57565b50505050905090565b60603373ffffffffffffffffffffffffffffffffffffffff168273ffffffffffffffffffffffffffffffffffffffff161480610ec15750600160008373ffffffffffffffffffffffffffffffffffffffff1673ffffffffffffffffffffffffffffffffffffffff16815260200190815260200160002060003373ffffffffffffffffffffffffffffffffffffffff1673ffffffffffffffffffffffffffffffffffffffff16815260200190815260200160002060009054906101000a900460ff165b610f00576040517f08c379a0000000000000000000000000000000000000000000000000000000008152600401610ef790612039565b60405180910390fd5b6000808373ffffffffffffffffffffffffffffffffffffffff1673ffffffffffffffffffffffffffffffffffffffff168152602001908152602001600020805480602002602001604051908101604052809291908181526020016000905b8282101561100a578382906000526020600020018054610f7d90611c98565b80601f0160208091040260200160405190810160405280929190818152602001828054610fa990611c98565b8015610ff65780601f10610fcb57610100808354040283529160200191610ff6565b820191906000526020600020905b815481529060010190602001808311610fd957829003601f168201915b505050505081526020019060010190610f5e565b505050509050919050565b60018060003373ffffffffffffffffffffffffffffffffffffffff1673ffffffffffffffffffffffffffffffffffffffff16815260200190815260200160002060008373ffffffffffffffffffffffffffffffffffffffff1673ffffffffffffffffffffffffffffffffffffffff16815260200190815260200160002060006101000a81548160ff021916908315150217905550600360003373ffffffffffffffffffffffffffffffffffffffff1673ffffffffffffffffffffffffffffffffffffffff16815260200190815260200160002060008273ffffffffffffffffffffffffffffffffffffffff1673ffffffffffffffffffffffffffffffffffffffff16815260200190815260200160002060009054906101000a900460ff16156112c75760005b600260003373ffffffffffffffffffffffffffffffffffffffff1673ffffffffffffffffffffffffffffffffffffffff168152602001908152602001600020805490508110156112c1578173ffffffffffffffffffffffffffffffffffffffff16600260003373ffffffffffffffffffffffffffffffffffffffff1673ffffffffffffffffffffffffffffffffffffffff16815260200190815260200160002082815481106111ed576111ec611f47565b5b9060005260206000200160000160009054906101000a900473ffffffffffffffffffffffffffffffffffffffff1673ffffffffffffffffffffffffffffffffffffffff16036112ae576001600260003373ffffffffffffffffffffffffffffffffffffffff1673ffffffffffffffffffffffffffffffffffffffff168152602001908152602001600020828154811061128957611288611f47565b5b9060005260206000200160000160146101000a81548160ff0219169083151502179055505b80806112b990611fa5565b91505061113b565b50611458565b600260003373ffffffffffffffffffffffffffffffffffffffff1673ffffffffffffffffffffffffffffffffffffffff16815260200190815260200160002060405180604001604052808373ffffffffffffffffffffffffffffffffffffffff168152602001600115158152509080600181540180825580915050600190039060005260206000200160009091909190915060008201518160000160006101000a81548173ffffffffffffffffffffffffffffffffffffffff021916908373ffffffffffffffffffffffffffffffffffffffff16021790555060208201518160000160146101000a81548160ff02191690831515021790555050506001600360003373ffffffffffffffffffffffffffffffffffffffff1673ffffffffffffffffffffffffffffffffffffffff16815260200190815260200160002060008373ffffffffffffffffffffffffffffffffffffffff1673ffffffffffffffffffffffffffffffffffffffff16815260200190815260200160002060006101000a81548160ff0219169083151502179055505b50565b6000604051905090565b600080fd5b600080fd5b600073ffffffffffffffffffffffffffffffffffffffff82169050919050565b600061149a8261146f565b9050919050565b6114aa8161148f565b81146114b557600080fd5b50565b6000813590506114c7816114a1565b92915050565b600080fd5b600080fd5b6000601f19601f8301169050919050565b7f4e487b7100000000000000000000000000000000000000000000000000000000600052604160045260246000fd5b611520826114d7565b810181811067ffffffffffffffff8211171561153f5761153e6114e8565b5b80604052505050565b600061155261145b565b905061155e8282611517565b919050565b600067ffffffffffffffff82111561157e5761157d6114e8565b5b611587826114d7565b9050602081019050919050565b82818337600083830152505050565b60006115b66115b184611563565b611548565b9050828152602081018484840111156115d2576115d16114d2565b5b6115dd848285611594565b509392505050565b600082601f8301126115fa576115f96114cd565b5b813561160a8482602086016115a3565b91505092915050565b6000806040838503121561162a57611629611465565b5b6000611638858286016114b8565b925050602083013567ffffffffffffffff8111156116595761165861146a565b5b611665858286016115e5565b9150509250929050565b6000819050919050565b6116828161166f565b811461168d57600080fd5b50565b60008135905061169f81611679565b92915050565b6000602082840312156116bb576116ba611465565b5b60006116c984828501611690565b91505092915050565b600081519050919050565b600082825260208201905092915050565b60005b8381101561170c5780820151818401526020810190506116f1565b60008484015250505050565b6000611723826116d2565b61172d81856116dd565b935061173d8185602086016116ee565b611746816114d7565b840191505092915050565b6000819050919050565b61176481611751565b82525050565b6117738161166f565b82525050565b6117828161148f565b82525050565b60006101408201905081810360008301526117a3818d611718565b905081810360208301526117b7818c611718565b90506117c6604083018b61175b565b81810360608301526117d8818a611718565b90506117e7608083018961176a565b6117f460a083018861176a565b61180160c083018761176a565b81810360e08301526118138186611718565b90508181036101008301526118288185611718565b9050611838610120830184611779565b9b9a5050505050505050505050565b600060208201905061185c600083018461176a565b92915050565b60006020828403121561187857611877611465565b5b6000611886848285016114b8565b91505092915050565b61189881611751565b81146118a357600080fd5b50565b6000813590506118b58161188f565b92915050565b60008060008060008060008060006101208a8c0312156118de576118dd611465565b5b60008a013567ffffffffffffffff8111156118fc576118fb61146a565b5b6119088c828d016115e5565b99505060208a013567ffffffffffffffff8111156119295761192861146a565b5b6119358c828d016115e5565b98505060406119468c828d016118a6565b97505060608a013567ffffffffffffffff8111156119675761196661146a565b5b6119738c828d016115e5565b96505060806119848c828d01611690565b95505060a06119958c828d01611690565b94505060c06119a68c828d01611690565b93505060e08a013567ffffffffffffffff8111156119c7576119c661146a565b5b6119d38c828d016115e5565b9250506101008a013567ffffffffffffffff8111156119f5576119f461146a565b5b611a018c828d016115e5565b9150509295985092959850929598565b600081519050919050565b600082825260208201905092915050565b6000819050602082019050919050565b611a468161148f565b82525050565b60008115159050919050565b611a6181611a4c565b82525050565b604082016000820151611a7d6000850182611a3d565b506020820151611a906020850182611a58565b50505050565b6000611aa28383611a67565b60408301905092915050565b6000602082019050919050565b6000611ac682611a11565b611ad08185611a1c565b9350611adb83611a2d565b8060005b83811015611b0c578151611af38882611a96565b9750611afe83611aae565b925050600181019050611adf565b5085935050505092915050565b60006020820190508181036000830152611b338184611abb565b905092915050565b600081519050919050565b600082825260208201905092915050565b6000819050602082019050919050565b600082825260208201905092915050565b6000611b83826116d2565b611b8d8185611b67565b9350611b9d8185602086016116ee565b611ba6816114d7565b840191505092915050565b6000611bbd8383611b78565b905092915050565b6000602082019050919050565b6000611bdd82611b3b565b611be78185611b46565b935083602082028501611bf985611b57565b8060005b85811015611c355784840389528151611c168582611bb1565b9450611c2183611bc5565b925060208a01995050600181019050611bfd565b50829750879550505050505092915050565b60006020820190508181036000830152611c618184611bd2565b905092915050565b7f4e487b7100000000000000000000000000000000000000000000000000000000600052602260045260246000fd5b60006002820490506001821680611cb057607f821691505b602082108103611cc357611cc2611c69565b5b50919050565b60008190508160005260206000209050919050565b60006020601f8301049050919050565b600082821b905092915050565b600060088302611d2b7fffffffffffffffffffffffffffffffffffffffffffffffffffffffffffffffff82611cee565b611d358683611cee565b95508019841693508086168417925050509392505050565b6000819050919050565b6000611d72611d6d611d688461166f565b611d4d565b61166f565b9050919050565b6000819050919050565b611d8c83611d57565b611da0611d9882611d79565b848454611cfb565b825550505050565b600090565b611db5611da8565b611dc0818484611d83565b505050565b5b81811015611de457611dd9600082611dad565b600181019050611dc6565b5050565b601f821115611e2957611dfa81611cc9565b611e0384611cde565b81016020851015611e12578190505b611e26611e1e85611cde565b830182611dc5565b50505b505050565b600082821c905092915050565b6000611e4c60001984600802611e2e565b1980831691505092915050565b6000611e658383611e3b565b9150826002028217905092915050565b611e7e826116d2565b67ffffffffffffffff811115611e9757611e966114e8565b5b611ea18254611c98565b611eac828285611de8565b600060209050601f831160018114611edf5760008415611ecd578287015190505b611ed78582611e59565b865550611f3f565b601f198416611eed86611cc9565b60005b82811015611f1557848901518255600182019150602085019450602081019050611ef0565b86831015611f325784890151611f2e601f891682611e3b565b8355505b6001600288020188555050505b505050505050565b7f4e487b7100000000000000000000000000000000000000000000000000000000600052603260045260246000fd5b7f4e487b7100000000000000000000000000000000000000000000000000000000600052601160045260246000fd5b6000611fb08261166f565b91507fffffffffffffffffffffffffffffffffffffffffffffffffffffffffffffffff8203611fe257611fe1611f76565b5b600182019050919050565b7f596f7520646f6e27742068617665206163636573730000000000000000000000600082015250565b60006120236015836116dd565b915061202e82611fed565b602082019050919050565b6000602082019050818103600083015261205281612016565b905091905056fea26469706673582212205da94f48630eddeaa9214ad3be3f75a28932a05698b8e0dbf3ebd317d5c38d6564736f6c63430008130033",
  "linkReferences": {},
  "deployedLinkReferences": {}
}